{
  "contractName": "AccountDatabase",
  "abi": [
    {
      "constant": true,
      "inputs": [],
      "name": "totalSupply",
      "outputs": [
        {
          "name": "",
          "type": "uint256"
        }
      ],
      "payable": false,
      "stateMutability": "view",
      "type": "function"
    },
    {
      "constant": true,
      "inputs": [
        {
          "name": "",
          "type": "address"
        }
      ],
      "name": "balances",
      "outputs": [
        {
          "name": "",
          "type": "uint256"
        }
      ],
      "payable": false,
      "stateMutability": "view",
      "type": "function"
    },
    {
      "constant": false,
      "inputs": [
        {
          "name": "value",
          "type": "uint256"
        }
      ],
      "name": "withdraw",
      "outputs": [],
      "payable": false,
      "stateMutability": "nonpayable",
      "type": "function"
    },
    {
      "constant": false,
      "inputs": [
        {
          "name": "to",
          "type": "address"
        },
        {
          "name": "value",
          "type": "uint256"
        }
      ],
      "name": "transfer",
      "outputs": [
        {
          "name": "success",
          "type": "bool"
        }
      ],
      "payable": false,
      "stateMutability": "nonpayable",
      "type": "function"
    },
    {
      "inputs": [],
      "payable": false,
      "stateMutability": "nonpayable",
      "type": "constructor"
    },
    {
      "payable": true,
      "stateMutability": "payable",
      "type": "fallback"
    }
  ],
  "bytecode": "0x6060604052341561000f57600080fd5b670de0b6b3a76400006001819055506001546000803373ffffffffffffffffffffffffffffffffffffffff1673ffffffffffffffffffffffffffffffffffffffff168152602001908152602001600020819055506103da806100726000396000f300606060405260043610610062576000357c0100000000000000000000000000000000000000000000000000000000900463ffffffff16806318160ddd146100c057806327e235e3146100e95780632e1a7d4d14610136578063a9059cbb14610159575b34600160008282540192505081905550346000803373ffffffffffffffffffffffffffffffffffffffff1673ffffffffffffffffffffffffffffffffffffffff16815260200190815260200160002060008282540192505081905550005b34156100cb57600080fd5b6100d36101b3565b6040518082815260200191505060405180910390f35b34156100f457600080fd5b610120600480803573ffffffffffffffffffffffffffffffffffffffff169060200190919050506101b9565b6040518082815260200191505060405180910390f35b341561014157600080fd5b61015760048080359060200190919050506101d1565b005b341561016457600080fd5b610199600480803573ffffffffffffffffffffffffffffffffffffffff169060200190919080359060200190919050506102bd565b604051808215151515815260200191505060405180910390f35b60015481565b60006020528060005260406000206000915090505481565b806000803373ffffffffffffffffffffffffffffffffffffffff1673ffffffffffffffffffffffffffffffffffffffff168152602001908152602001600020541015151561021e57600080fd5b806000803373ffffffffffffffffffffffffffffffffffffffff1673ffffffffffffffffffffffffffffffffffffffff16815260200190815260200160002060008282540392505081905550806001600082825403925050819055503373ffffffffffffffffffffffffffffffffffffffff166108fc829081150290604051600060405180830381858888f1935050505015156102ba57600080fd5b50565b6000816000803373ffffffffffffffffffffffffffffffffffffffff1673ffffffffffffffffffffffffffffffffffffffff168152602001908152602001600020541015151561030c57600080fd5b816000808573ffffffffffffffffffffffffffffffffffffffff1673ffffffffffffffffffffffffffffffffffffffff16815260200190815260200160002060008282540192505081905550816000803373ffffffffffffffffffffffffffffffffffffffff1673ffffffffffffffffffffffffffffffffffffffff1681526020019081526020016000206000828254039250508190555060019050929150505600a165627a7a723058201f72ad9834086237f43576d413773d9dd7c0bbd596d5231e0db0045206c1fe0b0029",
  "source": "pragma solidity ^0.4.18;\n\ncontract AccountDatabase {\n\n    mapping (address => uint) public balances;\n    uint public totalSupply;\n\n    function AccountDatabase() public {\n        totalSupply = 1 ether;\n        balances[msg.sender] = totalSupply;\n    }\n\n    function withdraw(uint value) public {\n        require(balances[msg.sender] >= value);\n        balances[msg.sender] -= value;\n        totalSupply -= value;\n        require(msg.sender.send(value));\n    }\n\n    function () public payable {\n        totalSupply += msg.value;\n        balances[msg.sender] += msg.value;\n    }\n\n    function transfer(address to, uint value) public returns (bool success) {\n        require(balances[msg.sender] >= value);\n        balances[to] += value;\n        balances[msg.sender] -= value;\n        return true;\n    }\n}\n",
  "sourcePath": "/Users/nicolasgirardot/Documents/Tutoriels Solidity/Épisodes/5/repo/contracts/AccountDatabase.sol",
  "compiler": {
    "name": "solc",
    "version": "0.4.18+commit.9cf6e910.Emscripten.clang"
  },
  "schemaVersion": "1.0.1",
  "updatedAt": "2018-01-24T13:14:17.537Z"
}