{
  "contractName": "HelloWorld",
  "abi": [
    {
      "constant": true,
      "inputs": [],
      "name": "print",
      "outputs": [
        {
          "name": "",
          "type": "string"
        }
      ],
      "payable": false,
      "stateMutability": "pure",
      "type": "function"
    }
  ],
  "bytecode": "0x608060405234801561001057600080fd5b5061013f806100206000396000f3fe608060405260043610610041576000357c0100000000000000000000000000000000000000000000000000000000900463ffffffff16806313bdfacd14610046575b600080fd5b34801561005257600080fd5b5061005b6100d6565b6040518080602001828103825283818151815260200191508051906020019080838360005b8381101561009b578082015181840152602081019050610080565b50505050905090810190601f1680156100c85780820380516001836020036101000a031916815260200191505b509250505060405180910390f35b60606040805190810160405280600d81526020017f48656c6c6f20576f726c6420210000000000000000000000000000000000000081525090509056fea165627a7a72305820cddf9f62c327b13d5e186d35a8c8f397b798a54923f2cbf1a8543ec3a8eadd280029",
  "source": "pragma solidity >=0.4.18;\n\ncontract HelloWorld {\n\n    function print() public pure returns (string memory) {\n        return (\"Hello World !\");\n    }\n}\n",
  "sourcePath": "/Users/ngirardot/Documents/Work/NotesEpisodes/Episode_2/contracts/HelloWorld.sol",
  "compiler": {
    "name": "solc",
    "version": "0.5.0+commit.1d4f565a.Emscripten.clang"
  },
  "schemaVersion": "3.0.2",
  "updatedAt": "2019-03-01T16:11:37.685Z",
  "devdoc": {
    "methods": {}
  },
  "userdoc": {
    "methods": {}
  }
}